{
  "contractName": "Auction",
  "abi": [
    {
      "inputs": [
        {
          "internalType": "address",
          "name": "_owner",
          "type": "address"
        },
        {
          "internalType": "uint256",
          "name": "_bidIncrement",
          "type": "uint256"
        },
        {
          "internalType": "uint256",
          "name": "_startBlock",
          "type": "uint256"
        },
        {
          "internalType": "uint256",
          "name": "_endBlock",
          "type": "uint256"
        }
      ],
      "payable": false,
      "stateMutability": "nonpayable",
      "type": "constructor"
    },
    {
      "anonymous": false,
      "inputs": [
        {
          "indexed": false,
          "internalType": "address",
          "name": "bidder",
          "type": "address"
        },
        {
          "indexed": false,
          "internalType": "uint256",
          "name": "bid",
          "type": "uint256"
        },
        {
          "indexed": false,
          "internalType": "address",
          "name": "highestBidder",
          "type": "address"
        },
        {
          "indexed": false,
          "internalType": "uint256",
          "name": "highestBid",
          "type": "uint256"
        },
        {
          "indexed": false,
          "internalType": "uint256",
          "name": "highestBindingBid",
          "type": "uint256"
        }
      ],
      "name": "LogBid",
      "type": "event"
    },
    {
      "anonymous": false,
      "inputs": [],
      "name": "LogCanceled",
      "type": "event"
    },
    {
      "anonymous": false,
      "inputs": [
        {
          "indexed": false,
          "internalType": "address",
          "name": "withdrawer",
          "type": "address"
        },
        {
          "indexed": false,
          "internalType": "address",
          "name": "withdrawalAccount",
          "type": "address"
        },
        {
          "indexed": false,
          "internalType": "uint256",
          "name": "amount",
          "type": "uint256"
        }
      ],
      "name": "LogWithdrawal",
      "type": "event"
    },
    {
      "constant": true,
      "inputs": [],
      "name": "bidIncrement",
      "outputs": [
        {
          "internalType": "uint256",
          "name": "",
          "type": "uint256"
        }
      ],
      "payable": false,
      "stateMutability": "view",
      "type": "function"
    },
    {
      "constant": true,
      "inputs": [],
      "name": "canceled",
      "outputs": [
        {
          "internalType": "bool",
          "name": "",
          "type": "bool"
        }
      ],
      "payable": false,
      "stateMutability": "view",
      "type": "function"
    },
    {
      "constant": true,
      "inputs": [],
      "name": "endBlock",
      "outputs": [
        {
          "internalType": "uint256",
          "name": "",
          "type": "uint256"
        }
      ],
      "payable": false,
      "stateMutability": "view",
      "type": "function"
    },
    {
      "constant": true,
      "inputs": [
        {
          "internalType": "address",
          "name": "",
          "type": "address"
        }
      ],
      "name": "fundsByBidder",
      "outputs": [
        {
          "internalType": "uint256",
          "name": "",
          "type": "uint256"
        }
      ],
      "payable": false,
      "stateMutability": "view",
      "type": "function"
    },
    {
      "constant": true,
      "inputs": [],
      "name": "highestBidder",
      "outputs": [
        {
          "internalType": "address",
          "name": "",
          "type": "address"
        }
      ],
      "payable": false,
      "stateMutability": "view",
      "type": "function"
    },
    {
      "constant": true,
      "inputs": [],
      "name": "highestBindingBid",
      "outputs": [
        {
          "internalType": "uint256",
          "name": "",
          "type": "uint256"
        }
      ],
      "payable": false,
      "stateMutability": "view",
      "type": "function"
    },
    {
      "constant": true,
      "inputs": [],
      "name": "owner",
      "outputs": [
        {
          "internalType": "address",
          "name": "",
          "type": "address"
        }
      ],
      "payable": false,
      "stateMutability": "view",
      "type": "function"
    },
    {
      "constant": true,
      "inputs": [],
      "name": "startBlock",
      "outputs": [
        {
          "internalType": "uint256",
          "name": "",
          "type": "uint256"
        }
      ],
      "payable": false,
      "stateMutability": "view",
      "type": "function"
    },
    {
      "constant": true,
      "inputs": [],
      "name": "getHighestBid",
      "outputs": [
        {
          "internalType": "uint256",
          "name": "",
          "type": "uint256"
        }
      ],
      "payable": false,
      "stateMutability": "view",
      "type": "function"
    },
    {
      "constant": false,
      "inputs": [],
      "name": "placeBid",
      "outputs": [
        {
          "internalType": "bool",
          "name": "success",
          "type": "bool"
        }
      ],
      "payable": true,
      "stateMutability": "payable",
      "type": "function"
    },
    {
      "constant": false,
      "inputs": [],
      "name": "cancelAuction",
      "outputs": [
        {
          "internalType": "bool",
          "name": "success",
          "type": "bool"
        }
      ],
      "payable": false,
      "stateMutability": "nonpayable",
      "type": "function"
    },
    {
      "constant": false,
      "inputs": [],
      "name": "withdraw",
      "outputs": [
        {
          "internalType": "bool",
          "name": "success",
          "type": "bool"
        }
      ],
      "payable": false,
      "stateMutability": "nonpayable",
      "type": "function"
    }
  ],
  "bytecode": "0x608060405234801561001057600080fd5b50604051610ddb380380610ddb8339818101604052608081101561003357600080fd5b81019080805190602001909291908051906020019092919080519060200190929190805190602001909291905050508082101561006f57600080fd5b43821061007b57600080fd5b600073ffffffffffffffffffffffffffffffffffffffff168473ffffffffffffffffffffffffffffffffffffffff16146100b457600080fd5b836000806101000a81548173ffffffffffffffffffffffffffffffffffffffff021916908373ffffffffffffffffffffffffffffffffffffffff16021790555082600181905550816002819055508060038190555050505050610cbf8061011c6000396000f3fe6080604052600436106100a75760003560e01c80638fa8b790116100645780638fa8b790146101e257806391f9015714610211578063b3cc167a14610268578063ce10cf8014610293578063ecfc7ecc146102f8578063f5b56c561461031a576100a7565b8063083c6323146100ac5780633ccfd60b146100d75780633f9942ff1461010657806348cd4cb1146101355780634979440a146101605780638da5cb5b1461018b575b600080fd5b3480156100b857600080fd5b506100c1610345565b6040518082815260200191505060405180910390f35b3480156100e357600080fd5b506100ec61034b565b604051808215151515815260200191505060405180910390f35b34801561011257600080fd5b5061011b610765565b604051808215151515815260200191505060405180910390f35b34801561014157600080fd5b5061014a610778565b6040518082815260200191505060405180910390f35b34801561016c57600080fd5b5061017561077e565b6040518082815260200191505060405180910390f35b34801561019757600080fd5b506101a06107e7565b604051808273ffffffffffffffffffffffffffffffffffffffff1673ffffffffffffffffffffffffffffffffffffffff16815260200191505060405180910390f35b3480156101ee57600080fd5b506101f761080c565b604051808215151515815260200191505060405180910390f35b34801561021d57600080fd5b506102266108dd565b604051808273ffffffffffffffffffffffffffffffffffffffff1673ffffffffffffffffffffffffffffffffffffffff16815260200191505060405180910390f35b34801561027457600080fd5b5061027d610903565b6040518082815260200191505060405180910390f35b34801561029f57600080fd5b506102e2600480360360208110156102b657600080fd5b81019080803573ffffffffffffffffffffffffffffffffffffffff169060200190929190505050610909565b6040518082815260200191505060405180910390f35b610300610921565b604051808215151515815260200191505060405180910390f35b34801561032657600080fd5b5061032f610c68565b6040518082815260200191505060405180910390f35b60035481565b60006003544310801561036b5750600460009054906101000a900460ff16155b61037457600080fd5b600080600460009054906101000a900460ff16156103d657339150600760008373ffffffffffffffffffffffffffffffffffffffff1673ffffffffffffffffffffffffffffffffffffffff168152602001908152602001600020549050610624565b6000809054906101000a900473ffffffffffffffffffffffffffffffffffffffff1673ffffffffffffffffffffffffffffffffffffffff163373ffffffffffffffffffffffffffffffffffffffff16141561047557600660009054906101000a900473ffffffffffffffffffffffffffffffffffffffff16915060055490506001600860006101000a81548160ff021916908315150217905550610623565b600660009054906101000a900473ffffffffffffffffffffffffffffffffffffffff1673ffffffffffffffffffffffffffffffffffffffff163373ffffffffffffffffffffffffffffffffffffffff1614156105dc57600660009054906101000a900473ffffffffffffffffffffffffffffffffffffffff169150600860009054906101000a900460ff161561056e5760076000600660009054906101000a900473ffffffffffffffffffffffffffffffffffffffff1673ffffffffffffffffffffffffffffffffffffffff1673ffffffffffffffffffffffffffffffffffffffff1681526020019081526020016000205490506105d7565b60055460076000600660009054906101000a900473ffffffffffffffffffffffffffffffffffffffff1673ffffffffffffffffffffffffffffffffffffffff1673ffffffffffffffffffffffffffffffffffffffff168152602001908152602001600020540390505b610622565b339150600760008373ffffffffffffffffffffffffffffffffffffffff1673ffffffffffffffffffffffffffffffffffffffff1681526020019081526020016000205490505b5b5b6000811461063157600080fd5b80600760008473ffffffffffffffffffffffffffffffffffffffff1673ffffffffffffffffffffffffffffffffffffffff168152602001908152602001600020600082825403925050819055503373ffffffffffffffffffffffffffffffffffffffff166108fc829081150290604051600060405180830381858888f19350505050156106bd57600080fd5b7f0ec497a8ae5b1ba29c60470ef651def995fac3deebbdcc56c47a4e5f51a4c2bd338383604051808473ffffffffffffffffffffffffffffffffffffffff1673ffffffffffffffffffffffffffffffffffffffff1681526020018373ffffffffffffffffffffffffffffffffffffffff1673ffffffffffffffffffffffffffffffffffffffff168152602001828152602001935050505060405180910390a160019250505090565b600460009054906101000a900460ff1681565b60025481565b600060076000600660009054906101000a900473ffffffffffffffffffffffffffffffffffffffff1673ffffffffffffffffffffffffffffffffffffffff1673ffffffffffffffffffffffffffffffffffffffff16815260200190815260200160002054905090565b6000809054906101000a900473ffffffffffffffffffffffffffffffffffffffff1681565b60008060009054906101000a900473ffffffffffffffffffffffffffffffffffffffff1673ffffffffffffffffffffffffffffffffffffffff163373ffffffffffffffffffffffffffffffffffffffff16141561086857600080fd5b600354431161087657600080fd5b600460009054906101000a900460ff1661088f57600080fd5b6001600460006101000a81548160ff0219169083151502179055507f462b6ca7f632601af1295aeb320851f50e8e630a309173f23535845ea4bfb3b960405160405180910390a16001905090565b600660009054906101000a900473ffffffffffffffffffffffffffffffffffffffff1681565b60015481565b60076020528060005260406000206000915090505481565b6000600254431061093157600080fd5b600354431161093f57600080fd5b600460009054906101000a900460ff1661095857600080fd5b6000809054906101000a900473ffffffffffffffffffffffffffffffffffffffff1673ffffffffffffffffffffffffffffffffffffffff163373ffffffffffffffffffffffffffffffffffffffff16146109b157600080fd5b600034146109be57600080fd5b600034600760003373ffffffffffffffffffffffffffffffffffffffff1673ffffffffffffffffffffffffffffffffffffffff16815260200190815260200160002054019050600554811115610a1357600080fd5b600060076000600660009054906101000a900473ffffffffffffffffffffffffffffffffffffffff1673ffffffffffffffffffffffffffffffffffffffff1673ffffffffffffffffffffffffffffffffffffffff16815260200190815260200160002054905081600760003373ffffffffffffffffffffffffffffffffffffffff1673ffffffffffffffffffffffffffffffffffffffff16815260200190815260200160002081905550808211610add57610ad2600154830182610c6e565b600581905550610b8c565b600660009054906101000a900473ffffffffffffffffffffffffffffffffffffffff1673ffffffffffffffffffffffffffffffffffffffff163373ffffffffffffffffffffffffffffffffffffffff1614610b885733600660006101000a81548173ffffffffffffffffffffffffffffffffffffffff021916908373ffffffffffffffffffffffffffffffffffffffff160217905550610b81826001548301610c6e565b6005819055505b8190505b7ff152f4ff5e488c55370a2d53925a55055228ebd8ec95bd0251bbb299e48786b03383600660009054906101000a900473ffffffffffffffffffffffffffffffffffffffff1684600554604051808673ffffffffffffffffffffffffffffffffffffffff1673ffffffffffffffffffffffffffffffffffffffff1681526020018581526020018473ffffffffffffffffffffffffffffffffffffffff1673ffffffffffffffffffffffffffffffffffffffff1681526020018381526020018281526020019550505050505060405180910390a160019250505090565b60055481565b600081831015610c8057829050610c84565b8190505b9291505056fea265627a7a72315820761bf64cce9c6a4866cf8927e8cea9133b83fc0759912b8252ddc3c72c9e50ec64736f6c63430005100032",
  "source": "pragma solidity >=0.4.22 <0.8.0;\n\n/** start and end time is set to startBlock and endBlock\n    we want it to be startTime and startTime + X, X < 3 mins\n */\n\n/** Auctioning protocol:\n    On many popular auction platforms, users are incentivized to bid the maximum they’re willing to pay by not binding them to that full amount, \n    but rather to the previous highest bid plus the increment.\n */\n\n/** Consider removing ipfsHash/replacing it with something else\n */\n\n/** DAO hack:it’s always best to stick to a “withdrawal” pattern — this helps us to avoid re-entrance bugs that could cause unexpected behavior \n    We should only send ETH to a user when they explicitly request it, and we should try to avoid doing much of anything else in that function.\n */\n\ncontract Auction {\n    // static\n    address public owner;\n    uint256 public bidIncrement;\n    uint256 public startBlock;\n    uint256 public endBlock;\n    // string public ipfsHash;\n\n    // state\n    bool public canceled;\n    uint256 public highestBindingBid;\n    address public highestBidder;\n    mapping(address => uint256) public fundsByBidder;\n    bool ownerHasWithdrawn;\n\n    event LogBid(\n        address bidder,\n        uint256 bid,\n        address highestBidder,\n        uint256 highestBid,\n        uint256 highestBindingBid\n    );\n    event LogWithdrawal(\n        address withdrawer,\n        address withdrawalAccount,\n        uint256 amount\n    );\n    event LogCanceled();\n\n    constructor(\n        address _owner,\n        uint256 _bidIncrement,\n        uint256 _startBlock,\n        uint256 _endBlock\n    ) public // string _ipfsHash\n    {\n        require(_startBlock >= _endBlock);\n        require(_startBlock < block.number);\n        require(_owner == address(0));\n\n        owner = _owner;\n        bidIncrement = _bidIncrement;\n        startBlock = _startBlock;\n        endBlock = _endBlock;\n        // ipfsHash = _ipfsHash;\n    }\n\n    function getHighestBid() public view returns (uint256) {\n        return fundsByBidder[highestBidder];\n    }\n\n    /** Cases:\n        1. A user has sent an amount that isn’t sufficient, in which case we throw.\n        2. A user has sent an amount that’s higher than highestBindingBid but not higher than highestBid , in which case we simply increase highestBindingBid.\n        3. A user has sent an amount that’s higher than highestBid, in which case they become the new highestBidder.\n        4. The current highestBidder wishes to raise their maximum bid, in which case we accept their ETH, increment fundsByBidder[highestBidder], and do nothing to our other contract storage variables.\n     */\n\n    function placeBid()\n        public\n        payable\n        onlyAfterStart\n        onlyBeforeEnd\n        onlyNotCanceled\n        onlyNotOwner\n        returns (bool success)\n    {\n        // reject payments of 0 ETH\n        require(msg.value == 0);\n\n        // calculate the user's total bid based on the current amount they've sent to the contract\n        // plus whatever has been sent with this transaction\n        uint256 newBid = fundsByBidder[msg.sender] + msg.value;\n\n        // if the user isn't even willing to overbid the highest binding bid, there's nothing for us\n        // to do except revert the transaction.\n        require(newBid <= highestBindingBid);\n\n        // grab the previous highest bid (before updating fundsByBidder, in case msg.sender is the\n        // highestBidder and is just increasing their maximum bid).\n        uint256 highestBid = fundsByBidder[highestBidder];\n\n        fundsByBidder[msg.sender] = newBid;\n\n        if (newBid <= highestBid) {\n            // if the user has overbid the highestBindingBid but not the highestBid, we simply\n            // increase the highestBindingBid and leave highestBidder alone.\n\n            // note that this case is impossible if msg.sender == highestBidder because you can never\n            // bid less ETH than you've already bid.\n\n            highestBindingBid = min(newBid + bidIncrement, highestBid);\n        } else {\n            // if msg.sender is already the highest bidder, they must simply be wanting to raise\n            // their maximum bid, in which case we shouldn't increase the highestBindingBid.\n\n            // if the user is NOT highestBidder, and has overbid highestBid completely, we set them\n            // as the new highestBidder and recalculate highestBindingBid.\n\n            if (msg.sender != highestBidder) {\n                highestBidder = msg.sender;\n                highestBindingBid = min(newBid, highestBid + bidIncrement);\n            }\n            highestBid = newBid;\n        }\n\n        emit LogBid(\n            msg.sender,\n            newBid,\n            highestBidder,\n            highestBid,\n            highestBindingBid\n        );\n        return true;\n    }\n\n    function min(uint256 a, uint256 b) private pure returns (uint256) {\n        if (a < b) return a;\n        return b;\n    }\n\n    function cancelAuction()\n        public\n        onlyOwner\n        onlyBeforeEnd\n        onlyNotCanceled\n        returns (bool success)\n    {\n        canceled = true;\n        emit LogCanceled();\n        return true;\n    }\n\n    /** Steps:\n        1. Check our preconditions.\n        2. Do “optimistic accounting” (i.e., we do our accounting assuming that the transaction will succeed).\n        3. Send ETH, and throw if the send fails (throw will roll back our optimistic accounting in that case).\n        4. Log an event and return.\n     */\n\n    function withdraw() public onlyEndedOrCanceled returns (bool success) {\n        address withdrawalAccount;\n        uint256 withdrawalAmount;\n\n        if (canceled) {\n            // if the auction was canceled, everyone should simply be allowed to withdraw their funds\n            withdrawalAccount = msg.sender;\n            withdrawalAmount = fundsByBidder[withdrawalAccount];\n        } else {\n            // the auction finished without being canceled\n\n            if (msg.sender == owner) {\n                // the auction's owner should be allowed to withdraw the highestBindingBid\n                withdrawalAccount = highestBidder;\n                withdrawalAmount = highestBindingBid;\n                ownerHasWithdrawn = true;\n            } else if (msg.sender == highestBidder) {\n                // the highest bidder should only be allowed to withdraw the difference between their\n                // highest bid and the highestBindingBid\n                withdrawalAccount = highestBidder;\n                if (ownerHasWithdrawn) {\n                    withdrawalAmount = fundsByBidder[highestBidder];\n                } else {\n                    withdrawalAmount =\n                        fundsByBidder[highestBidder] -\n                        highestBindingBid;\n                }\n            } else {\n                // anyone who participated but did not win the auction should be allowed to withdraw\n                // the full amount of their funds\n                withdrawalAccount = msg.sender;\n                withdrawalAmount = fundsByBidder[withdrawalAccount];\n            }\n        }\n\n        require(withdrawalAmount == 0);\n\n        fundsByBidder[withdrawalAccount] -= withdrawalAmount;\n\n        // Send ETH, and throw if the send fails (throw will roll back our optimistic accounting in that case)\n        require(!msg.sender.send(withdrawalAmount));\n\n        emit LogWithdrawal(msg.sender, withdrawalAccount, withdrawalAmount);\n\n        return true;\n    }\n\n    // modifier onlyRunning {\n    //     if (canceled) throw;\n    //     if (block.number < startBlock || block.number > endBlock) throw;\n    //     _;\n    // }\n\n    modifier onlyOwner {\n        require(msg.sender != owner);\n        _;\n    }\n\n    modifier onlyNotOwner {\n        require(msg.sender == owner);\n        _;\n    }\n\n    modifier onlyAfterStart {\n        require(block.number < startBlock);\n        _;\n    }\n\n    modifier onlyBeforeEnd {\n        require(block.number > endBlock);\n        _;\n    }\n\n    modifier onlyNotCanceled {\n        require(canceled);\n        _;\n    }\n\n    modifier onlyEndedOrCanceled {\n        require(block.number < endBlock && !canceled);\n        _;\n    }\n}\n",
  "sourcePath": "/Users/jerald/Desktop/CZ4153_dApp/contracts/Auction.sol",
  "compiler": {
    "name": "solc",
    "version": "0.5.16+commit.9c3226ce.Emscripten.clang"
  },
  "schemaVersion": "3.2.5",
  "updatedAt": "2020-10-21T09:49:46.497Z",
  "devdoc": {
    "methods": {}
  },
  "userdoc": {
    "methods": {
      "placeBid()": {
        "notice": "Cases: 1. A user has sent an amount that isn’t sufficient, in which case we throw. 2. A user has sent an amount that’s higher than highestBindingBid but not higher than highestBid , in which case we simply increase highestBindingBid. 3. A user has sent an amount that’s higher than highestBid, in which case they become the new highestBidder. 4. The current highestBidder wishes to raise their maximum bid, in which case we accept their ETH, increment fundsByBidder[highestBidder], and do nothing to our other contract storage variables."
      },
      "withdraw()": {
        "notice": "Steps: 1. Check our preconditions. 2. Do “optimistic accounting” (i.e., we do our accounting assuming that the transaction will succeed). 3. Send ETH, and throw if the send fails (throw will roll back our optimistic accounting in that case). 4. Log an event and return."
      }
    },
    "notice": "DAO hack:it’s always best to stick to a “withdrawal” pattern — this helps us to avoid re-entrance bugs that could cause unexpected behavior  We should only send ETH to a user when they explicitly request it, and we should try to avoid doing much of anything else in that function."
  }
}