{
  "contractName": "AuctionFactory",
  "abi": [
    {
      "inputs": [],
      "payable": false,
      "stateMutability": "nonpayable",
      "type": "constructor"
    },
    {
      "anonymous": false,
      "inputs": [
        {
          "indexed": false,
          "internalType": "contract Auction",
          "name": "auctionContract",
          "type": "address"
        },
        {
          "indexed": false,
          "internalType": "address",
          "name": "owner",
          "type": "address"
        },
        {
          "indexed": false,
          "internalType": "uint256",
          "name": "numAuctions",
          "type": "uint256"
        },
        {
          "indexed": false,
          "internalType": "contract Auction[]",
          "name": "allAuctions",
          "type": "address[]"
        }
      ],
      "name": "AuctionCreated",
      "type": "event"
    },
    {
      "constant": false,
      "inputs": [
        {
          "internalType": "uint256",
          "name": "bidIncrement",
          "type": "uint256"
        },
        {
          "internalType": "uint256",
          "name": "startBlock",
          "type": "uint256"
        },
        {
          "internalType": "uint256",
          "name": "endBlock",
          "type": "uint256"
        }
      ],
      "name": "createAuction",
      "outputs": [],
      "payable": false,
      "stateMutability": "nonpayable",
      "type": "function"
    }
  ],
  "bytecode": "0x608060405234801561001057600080fd5b5061123d806100206000396000f3fe608060405234801561001057600080fd5b506004361061002b5760003560e01c8063cda4beef14610030575b600080fd5b6100706004803603606081101561004657600080fd5b81019080803590602001909291908035906020019092919080359060200190929190505050610072565b005b60003384848460405161008490610353565b808573ffffffffffffffffffffffffffffffffffffffff1673ffffffffffffffffffffffffffffffffffffffff168152602001848152602001838152602001828152602001945050505050604051809103906000f0801580156100eb573d6000803e3d6000fd5b50905060606001600080549050016040519080825280602002602001820160405280156101275781602001602082028038833980820191505090505b50905060008090505b6000805490508110156101c8576000818154811061014a57fe5b9060005260206000200160009054906101000a900473ffffffffffffffffffffffffffffffffffffffff1682828151811061018157fe5b602002602001019073ffffffffffffffffffffffffffffffffffffffff16908173ffffffffffffffffffffffffffffffffffffffff16815250508080600101915050610130565b5081816001835103815181106101da57fe5b602002602001019073ffffffffffffffffffffffffffffffffffffffff16908173ffffffffffffffffffffffffffffffffffffffff1681525050806000908051906020019061022a929190610360565b507f0d314047f0d1e39dbbd521f0844c35332083a15926b906540faa68e1a4262b6882336000805490506000604051808573ffffffffffffffffffffffffffffffffffffffff1673ffffffffffffffffffffffffffffffffffffffff1681526020018473ffffffffffffffffffffffffffffffffffffffff1673ffffffffffffffffffffffffffffffffffffffff16815260200183815260200180602001828103825283818154815260200191508054801561033b57602002820191906000526020600020905b8160009054906101000a900473ffffffffffffffffffffffffffffffffffffffff1673ffffffffffffffffffffffffffffffffffffffff16815260200190600101908083116102f1575b50509550505050505060405180910390a15050505050565b610ddb8061042e83390190565b8280548282559060005260206000209081019282156103d9579160200282015b828111156103d85782518260006101000a81548173ffffffffffffffffffffffffffffffffffffffff021916908373ffffffffffffffffffffffffffffffffffffffff16021790555091602001919060010190610380565b5b5090506103e691906103ea565b5090565b61042a91905b8082111561042657600081816101000a81549073ffffffffffffffffffffffffffffffffffffffff0219169055506001016103f0565b5090565b9056fe608060405234801561001057600080fd5b50604051610ddb380380610ddb8339818101604052608081101561003357600080fd5b81019080805190602001909291908051906020019092919080519060200190929190805190602001909291905050508082101561006f57600080fd5b43821061007b57600080fd5b600073ffffffffffffffffffffffffffffffffffffffff168473ffffffffffffffffffffffffffffffffffffffff16146100b457600080fd5b836000806101000a81548173ffffffffffffffffffffffffffffffffffffffff021916908373ffffffffffffffffffffffffffffffffffffffff16021790555082600181905550816002819055508060038190555050505050610cbf8061011c6000396000f3fe6080604052600436106100a75760003560e01c80638fa8b790116100645780638fa8b790146101e257806391f9015714610211578063b3cc167a14610268578063ce10cf8014610293578063ecfc7ecc146102f8578063f5b56c561461031a576100a7565b8063083c6323146100ac5780633ccfd60b146100d75780633f9942ff1461010657806348cd4cb1146101355780634979440a146101605780638da5cb5b1461018b575b600080fd5b3480156100b857600080fd5b506100c1610345565b6040518082815260200191505060405180910390f35b3480156100e357600080fd5b506100ec61034b565b604051808215151515815260200191505060405180910390f35b34801561011257600080fd5b5061011b610765565b604051808215151515815260200191505060405180910390f35b34801561014157600080fd5b5061014a610778565b6040518082815260200191505060405180910390f35b34801561016c57600080fd5b5061017561077e565b6040518082815260200191505060405180910390f35b34801561019757600080fd5b506101a06107e7565b604051808273ffffffffffffffffffffffffffffffffffffffff1673ffffffffffffffffffffffffffffffffffffffff16815260200191505060405180910390f35b3480156101ee57600080fd5b506101f761080c565b604051808215151515815260200191505060405180910390f35b34801561021d57600080fd5b506102266108dd565b604051808273ffffffffffffffffffffffffffffffffffffffff1673ffffffffffffffffffffffffffffffffffffffff16815260200191505060405180910390f35b34801561027457600080fd5b5061027d610903565b6040518082815260200191505060405180910390f35b34801561029f57600080fd5b506102e2600480360360208110156102b657600080fd5b81019080803573ffffffffffffffffffffffffffffffffffffffff169060200190929190505050610909565b6040518082815260200191505060405180910390f35b610300610921565b604051808215151515815260200191505060405180910390f35b34801561032657600080fd5b5061032f610c68565b6040518082815260200191505060405180910390f35b60035481565b60006003544310801561036b5750600460009054906101000a900460ff16155b61037457600080fd5b600080600460009054906101000a900460ff16156103d657339150600760008373ffffffffffffffffffffffffffffffffffffffff1673ffffffffffffffffffffffffffffffffffffffff168152602001908152602001600020549050610624565b6000809054906101000a900473ffffffffffffffffffffffffffffffffffffffff1673ffffffffffffffffffffffffffffffffffffffff163373ffffffffffffffffffffffffffffffffffffffff16141561047557600660009054906101000a900473ffffffffffffffffffffffffffffffffffffffff16915060055490506001600860006101000a81548160ff021916908315150217905550610623565b600660009054906101000a900473ffffffffffffffffffffffffffffffffffffffff1673ffffffffffffffffffffffffffffffffffffffff163373ffffffffffffffffffffffffffffffffffffffff1614156105dc57600660009054906101000a900473ffffffffffffffffffffffffffffffffffffffff169150600860009054906101000a900460ff161561056e5760076000600660009054906101000a900473ffffffffffffffffffffffffffffffffffffffff1673ffffffffffffffffffffffffffffffffffffffff1673ffffffffffffffffffffffffffffffffffffffff1681526020019081526020016000205490506105d7565b60055460076000600660009054906101000a900473ffffffffffffffffffffffffffffffffffffffff1673ffffffffffffffffffffffffffffffffffffffff1673ffffffffffffffffffffffffffffffffffffffff168152602001908152602001600020540390505b610622565b339150600760008373ffffffffffffffffffffffffffffffffffffffff1673ffffffffffffffffffffffffffffffffffffffff1681526020019081526020016000205490505b5b5b6000811461063157600080fd5b80600760008473ffffffffffffffffffffffffffffffffffffffff1673ffffffffffffffffffffffffffffffffffffffff168152602001908152602001600020600082825403925050819055503373ffffffffffffffffffffffffffffffffffffffff166108fc829081150290604051600060405180830381858888f19350505050156106bd57600080fd5b7f0ec497a8ae5b1ba29c60470ef651def995fac3deebbdcc56c47a4e5f51a4c2bd338383604051808473ffffffffffffffffffffffffffffffffffffffff1673ffffffffffffffffffffffffffffffffffffffff1681526020018373ffffffffffffffffffffffffffffffffffffffff1673ffffffffffffffffffffffffffffffffffffffff168152602001828152602001935050505060405180910390a160019250505090565b600460009054906101000a900460ff1681565b60025481565b600060076000600660009054906101000a900473ffffffffffffffffffffffffffffffffffffffff1673ffffffffffffffffffffffffffffffffffffffff1673ffffffffffffffffffffffffffffffffffffffff16815260200190815260200160002054905090565b6000809054906101000a900473ffffffffffffffffffffffffffffffffffffffff1681565b60008060009054906101000a900473ffffffffffffffffffffffffffffffffffffffff1673ffffffffffffffffffffffffffffffffffffffff163373ffffffffffffffffffffffffffffffffffffffff16141561086857600080fd5b600354431161087657600080fd5b600460009054906101000a900460ff1661088f57600080fd5b6001600460006101000a81548160ff0219169083151502179055507f462b6ca7f632601af1295aeb320851f50e8e630a309173f23535845ea4bfb3b960405160405180910390a16001905090565b600660009054906101000a900473ffffffffffffffffffffffffffffffffffffffff1681565b60015481565b60076020528060005260406000206000915090505481565b6000600254431061093157600080fd5b600354431161093f57600080fd5b600460009054906101000a900460ff1661095857600080fd5b6000809054906101000a900473ffffffffffffffffffffffffffffffffffffffff1673ffffffffffffffffffffffffffffffffffffffff163373ffffffffffffffffffffffffffffffffffffffff16146109b157600080fd5b600034146109be57600080fd5b600034600760003373ffffffffffffffffffffffffffffffffffffffff1673ffffffffffffffffffffffffffffffffffffffff16815260200190815260200160002054019050600554811115610a1357600080fd5b600060076000600660009054906101000a900473ffffffffffffffffffffffffffffffffffffffff1673ffffffffffffffffffffffffffffffffffffffff1673ffffffffffffffffffffffffffffffffffffffff16815260200190815260200160002054905081600760003373ffffffffffffffffffffffffffffffffffffffff1673ffffffffffffffffffffffffffffffffffffffff16815260200190815260200160002081905550808211610add57610ad2600154830182610c6e565b600581905550610b8c565b600660009054906101000a900473ffffffffffffffffffffffffffffffffffffffff1673ffffffffffffffffffffffffffffffffffffffff163373ffffffffffffffffffffffffffffffffffffffff1614610b885733600660006101000a81548173ffffffffffffffffffffffffffffffffffffffff021916908373ffffffffffffffffffffffffffffffffffffffff160217905550610b81826001548301610c6e565b6005819055505b8190505b7ff152f4ff5e488c55370a2d53925a55055228ebd8ec95bd0251bbb299e48786b03383600660009054906101000a900473ffffffffffffffffffffffffffffffffffffffff1684600554604051808673ffffffffffffffffffffffffffffffffffffffff1673ffffffffffffffffffffffffffffffffffffffff1681526020018581526020018473ffffffffffffffffffffffffffffffffffffffff1673ffffffffffffffffffffffffffffffffffffffff1681526020018381526020018281526020019550505050505060405180910390a160019250505090565b60055481565b600081831015610c8057829050610c84565b8190505b9291505056fea265627a7a72315820761bf64cce9c6a4866cf8927e8cea9133b83fc0759912b8252ddc3c72c9e50ec64736f6c63430005100032a265627a7a72315820626bdadfa220d23a0cba8826fb942452eaac0011ecf0bf778aa9e8b5aa838c1b64736f6c63430005100032",
  "source": "pragma solidity >=0.4.22 <0.8.0;\n\nimport {Auction} from \"./Auction.sol\";\n\ncontract AuctionFactory {\n    Auction[] private auctions;\n\n    event AuctionCreated(\n        Auction auctionContract,\n        address owner,\n        uint256 numAuctions,\n        Auction[] allAuctions\n    );\n\n    constructor() public {}\n\n    function createAuction(\n        uint256 bidIncrement,\n        uint256 startBlock,\n        uint256 endBlock // string ipfsHash\n    ) public {\n        Auction newAuction = new Auction(\n            msg.sender,\n            bidIncrement,\n            startBlock,\n            endBlock\n            // ipfsHash\n        );\n        Auction[] memory aux = new Auction[](auctions.length + 1);\n        for (uint256 i = 0; i < auctions.length; i++) {\n            aux[i] = auctions[i];\n        }\n        aux[aux.length - 1] = newAuction;\n        auctions = aux;\n\n        emit AuctionCreated(newAuction, msg.sender, auctions.length, auctions);\n    }\n\n    // function allAuctions() pure public returns (address[]) {\n    //     return auctions;\n    // }\n}\n",
  "sourcePath": "/Users/jerald/Desktop/CZ4153_dApp/contracts/AuctionFactory.sol",
  "compiler": {
    "name": "solc",
    "version": "0.5.16+commit.9c3226ce.Emscripten.clang"
  },
  "schemaVersion": "3.2.5",
  "updatedAt": "2020-10-21T10:02:39.513Z",
  "networkType": "ethereum",
  "devdoc": {
    "methods": {}
  },
  "userdoc": {
    "methods": {}
  }
}