{
  "contractName": "DDNSService",
  "abi": [
    {
      "inputs": [],
      "payable": false,
      "stateMutability": "nonpayable",
      "type": "constructor"
    },
    {
      "anonymous": false,
      "inputs": [
        {
          "indexed": true,
          "internalType": "uint256",
          "name": "timestamp",
          "type": "uint256"
        },
        {
          "indexed": false,
          "internalType": "bytes",
          "name": "domainName",
          "type": "bytes"
        },
        {
          "indexed": false,
          "internalType": "bytes12",
          "name": "topLevel",
          "type": "bytes12"
        },
        {
          "indexed": false,
          "internalType": "bytes15",
          "name": "newIp",
          "type": "bytes15"
        }
      ],
      "name": "LogDomainNameEdited",
      "type": "event"
    },
    {
      "anonymous": false,
      "inputs": [
        {
          "indexed": true,
          "internalType": "uint256",
          "name": "timestamp",
          "type": "uint256"
        },
        {
          "indexed": false,
          "internalType": "bytes",
          "name": "domainName",
          "type": "bytes"
        },
        {
          "indexed": false,
          "internalType": "bytes12",
          "name": "topLevel",
          "type": "bytes12"
        }
      ],
      "name": "LogDomainNameRegistered",
      "type": "event"
    },
    {
      "anonymous": false,
      "inputs": [
        {
          "indexed": true,
          "internalType": "uint256",
          "name": "timestamp",
          "type": "uint256"
        },
        {
          "indexed": false,
          "internalType": "bytes",
          "name": "domainName",
          "type": "bytes"
        },
        {
          "indexed": false,
          "internalType": "bytes12",
          "name": "topLevel",
          "type": "bytes12"
        },
        {
          "indexed": true,
          "internalType": "address",
          "name": "owner",
          "type": "address"
        }
      ],
      "name": "LogDomainNameRenewed",
      "type": "event"
    },
    {
      "anonymous": false,
      "inputs": [
        {
          "indexed": true,
          "internalType": "uint256",
          "name": "timestamp",
          "type": "uint256"
        },
        {
          "indexed": false,
          "internalType": "bytes",
          "name": "domainName",
          "type": "bytes"
        },
        {
          "indexed": false,
          "internalType": "bytes12",
          "name": "topLevel",
          "type": "bytes12"
        },
        {
          "indexed": true,
          "internalType": "address",
          "name": "owner",
          "type": "address"
        },
        {
          "indexed": false,
          "internalType": "address",
          "name": "newOwner",
          "type": "address"
        }
      ],
      "name": "LogDomainNameTransferred",
      "type": "event"
    },
    {
      "anonymous": false,
      "inputs": [
        {
          "indexed": true,
          "internalType": "uint256",
          "name": "timestamp",
          "type": "uint256"
        },
        {
          "indexed": true,
          "internalType": "address",
          "name": "_owner",
          "type": "address"
        },
        {
          "indexed": false,
          "internalType": "uint256",
          "name": "amount",
          "type": "uint256"
        }
      ],
      "name": "LogPurchaseChangeReturned",
      "type": "event"
    },
    {
      "anonymous": false,
      "inputs": [
        {
          "indexed": true,
          "internalType": "uint256",
          "name": "timestamp",
          "type": "uint256"
        },
        {
          "indexed": false,
          "internalType": "bytes",
          "name": "domainName",
          "type": "bytes"
        },
        {
          "indexed": false,
          "internalType": "uint256",
          "name": "amountInWei",
          "type": "uint256"
        },
        {
          "indexed": false,
          "internalType": "uint256",
          "name": "expires",
          "type": "uint256"
        }
      ],
      "name": "LogReceipt",
      "type": "event"
    },
    {
      "anonymous": false,
      "inputs": [
        {
          "indexed": true,
          "internalType": "address",
          "name": "previousOwner",
          "type": "address"
        }
      ],
      "name": "OwnershipRenounced",
      "type": "event"
    },
    {
      "anonymous": false,
      "inputs": [
        {
          "indexed": true,
          "internalType": "address",
          "name": "previousOwner",
          "type": "address"
        },
        {
          "indexed": true,
          "internalType": "address",
          "name": "newOwner",
          "type": "address"
        }
      ],
      "name": "OwnershipTransferred",
      "type": "event"
    },
    {
      "anonymous": false,
      "inputs": [],
      "name": "Pause",
      "type": "event"
    },
    {
      "anonymous": false,
      "inputs": [],
      "name": "Unpause",
      "type": "event"
    },
    {
      "constant": true,
      "inputs": [],
      "name": "BYTES_DEFAULT_VALUE",
      "outputs": [
        {
          "internalType": "bytes1",
          "name": "",
          "type": "bytes1"
        }
      ],
      "payable": false,
      "stateMutability": "view",
      "type": "function"
    },
    {
      "constant": true,
      "inputs": [],
      "name": "DOMAIN_EXPIRATION_DATE",
      "outputs": [
        {
          "internalType": "uint256",
          "name": "",
          "type": "uint256"
        }
      ],
      "payable": false,
      "stateMutability": "view",
      "type": "function"
    },
    {
      "constant": true,
      "inputs": [],
      "name": "DOMAIN_NAME_COST",
      "outputs": [
        {
          "internalType": "uint256",
          "name": "",
          "type": "uint256"
        }
      ],
      "payable": false,
      "stateMutability": "view",
      "type": "function"
    },
    {
      "constant": true,
      "inputs": [],
      "name": "DOMAIN_NAME_COST_SHORT_ADDITION",
      "outputs": [
        {
          "internalType": "uint256",
          "name": "",
          "type": "uint256"
        }
      ],
      "payable": false,
      "stateMutability": "view",
      "type": "function"
    },
    {
      "constant": true,
      "inputs": [],
      "name": "DOMAIN_NAME_EXPENSIVE_LENGTH",
      "outputs": [
        {
          "internalType": "uint8",
          "name": "",
          "type": "uint8"
        }
      ],
      "payable": false,
      "stateMutability": "view",
      "type": "function"
    },
    {
      "constant": true,
      "inputs": [],
      "name": "DOMAIN_NAME_MIN_LENGTH",
      "outputs": [
        {
          "internalType": "uint8",
          "name": "",
          "type": "uint8"
        }
      ],
      "payable": false,
      "stateMutability": "view",
      "type": "function"
    },
    {
      "constant": true,
      "inputs": [],
      "name": "TOP_LEVEL_DOMAIN_MIN_LENGTH",
      "outputs": [
        {
          "internalType": "uint8",
          "name": "",
          "type": "uint8"
        }
      ],
      "payable": false,
      "stateMutability": "view",
      "type": "function"
    },
    {
      "constant": true,
      "inputs": [
        {
          "internalType": "bytes32",
          "name": "",
          "type": "bytes32"
        }
      ],
      "name": "domainNames",
      "outputs": [
        {
          "internalType": "bytes",
          "name": "name",
          "type": "bytes"
        },
        {
          "internalType": "bytes12",
          "name": "topLevel",
          "type": "bytes12"
        },
        {
          "internalType": "address",
          "name": "owner",
          "type": "address"
        },
        {
          "internalType": "bytes15",
          "name": "ip",
          "type": "bytes15"
        },
        {
          "internalType": "uint256",
          "name": "expires",
          "type": "uint256"
        }
      ],
      "payable": false,
      "stateMutability": "view",
      "type": "function"
    },
    {
      "constant": true,
      "inputs": [],
      "name": "isOwner",
      "outputs": [
        {
          "internalType": "bool",
          "name": "",
          "type": "bool"
        }
      ],
      "payable": false,
      "stateMutability": "view",
      "type": "function"
    },
    {
      "constant": true,
      "inputs": [],
      "name": "owner",
      "outputs": [
        {
          "internalType": "address",
          "name": "",
          "type": "address"
        }
      ],
      "payable": false,
      "stateMutability": "view",
      "type": "function"
    },
    {
      "constant": false,
      "inputs": [],
      "name": "pause",
      "outputs": [],
      "payable": false,
      "stateMutability": "nonpayable",
      "type": "function"
    },
    {
      "constant": true,
      "inputs": [],
      "name": "paused",
      "outputs": [
        {
          "internalType": "bool",
          "name": "",
          "type": "bool"
        }
      ],
      "payable": false,
      "stateMutability": "view",
      "type": "function"
    },
    {
      "constant": true,
      "inputs": [
        {
          "internalType": "address",
          "name": "",
          "type": "address"
        },
        {
          "internalType": "uint256",
          "name": "",
          "type": "uint256"
        }
      ],
      "name": "paymentReceipts",
      "outputs": [
        {
          "internalType": "bytes32",
          "name": "",
          "type": "bytes32"
        }
      ],
      "payable": false,
      "stateMutability": "view",
      "type": "function"
    },
    {
      "constant": true,
      "inputs": [
        {
          "internalType": "bytes32",
          "name": "",
          "type": "bytes32"
        }
      ],
      "name": "receiptDetails",
      "outputs": [
        {
          "internalType": "uint256",
          "name": "amountPaidWei",
          "type": "uint256"
        },
        {
          "internalType": "uint256",
          "name": "timestamp",
          "type": "uint256"
        },
        {
          "internalType": "uint256",
          "name": "expires",
          "type": "uint256"
        }
      ],
      "payable": false,
      "stateMutability": "view",
      "type": "function"
    },
    {
      "constant": false,
      "inputs": [],
      "name": "renounceOwnership",
      "outputs": [],
      "payable": false,
      "stateMutability": "nonpayable",
      "type": "function"
    },
    {
      "constant": false,
      "inputs": [
        {
          "internalType": "address",
          "name": "newOwner",
          "type": "address"
        }
      ],
      "name": "transferOwnership",
      "outputs": [],
      "payable": false,
      "stateMutability": "nonpayable",
      "type": "function"
    },
    {
      "constant": false,
      "inputs": [],
      "name": "unpause",
      "outputs": [],
      "payable": false,
      "stateMutability": "nonpayable",
      "type": "function"
    },
    {
      "constant": false,
      "inputs": [
        {
          "internalType": "bytes",
          "name": "domain",
          "type": "bytes"
        },
        {
          "internalType": "bytes12",
          "name": "topLevel",
          "type": "bytes12"
        },
        {
          "internalType": "bytes15",
          "name": "ip",
          "type": "bytes15"
        }
      ],
      "name": "register",
      "outputs": [],
      "payable": true,
      "stateMutability": "payable",
      "type": "function"
    },
    {
      "constant": false,
      "inputs": [
        {
          "internalType": "bytes",
          "name": "domain",
          "type": "bytes"
        },
        {
          "internalType": "bytes12",
          "name": "topLevel",
          "type": "bytes12"
        }
      ],
      "name": "renewDomainName",
      "outputs": [],
      "payable": true,
      "stateMutability": "payable",
      "type": "function"
    },
    {
      "constant": false,
      "inputs": [
        {
          "internalType": "bytes",
          "name": "domain",
          "type": "bytes"
        },
        {
          "internalType": "bytes12",
          "name": "topLevel",
          "type": "bytes12"
        },
        {
          "internalType": "bytes15",
          "name": "newIp",
          "type": "bytes15"
        }
      ],
      "name": "edit",
      "outputs": [],
      "payable": false,
      "stateMutability": "nonpayable",
      "type": "function"
    },
    {
      "constant": false,
      "inputs": [
        {
          "internalType": "bytes",
          "name": "domain",
          "type": "bytes"
        },
        {
          "internalType": "bytes12",
          "name": "topLevel",
          "type": "bytes12"
        },
        {
          "internalType": "address",
          "name": "newOwner",
          "type": "address"
        }
      ],
      "name": "transferDomain",
      "outputs": [],
      "payable": false,
      "stateMutability": "nonpayable",
      "type": "function"
    },
    {
      "constant": true,
      "inputs": [
        {
          "internalType": "bytes",
          "name": "domain",
          "type": "bytes"
        },
        {
          "internalType": "bytes12",
          "name": "topLevel",
          "type": "bytes12"
        }
      ],
      "name": "getIP",
      "outputs": [
        {
          "internalType": "bytes15",
          "name": "",
          "type": "bytes15"
        }
      ],
      "payable": false,
      "stateMutability": "view",
      "type": "function"
    },
    {
      "constant": true,
      "inputs": [
        {
          "internalType": "bytes",
          "name": "domain",
          "type": "bytes"
        }
      ],
      "name": "getPrice",
      "outputs": [
        {
          "internalType": "uint256",
          "name": "",
          "type": "uint256"
        }
      ],
      "payable": false,
      "stateMutability": "pure",
      "type": "function"
    },
    {
      "constant": true,
      "inputs": [],
      "name": "getReceiptList",
      "outputs": [
        {
          "internalType": "bytes32[]",
          "name": "",
          "type": "bytes32[]"
        }
      ],
      "payable": false,
      "stateMutability": "view",
      "type": "function"
    },
    {
      "constant": true,
      "inputs": [
        {
          "internalType": "bytes32",
          "name": "receiptKey",
          "type": "bytes32"
        }
      ],
      "name": "getReceipt",
      "outputs": [
        {
          "internalType": "uint256",
          "name": "",
          "type": "uint256"
        },
        {
          "internalType": "uint256",
          "name": "",
          "type": "uint256"
        },
        {
          "internalType": "uint256",
          "name": "",
          "type": "uint256"
        }
      ],
      "payable": false,
      "stateMutability": "view",
      "type": "function"
    },
    {
      "constant": true,
      "inputs": [
        {
          "internalType": "bytes",
          "name": "domain",
          "type": "bytes"
        },
        {
          "internalType": "bytes12",
          "name": "topLevel",
          "type": "bytes12"
        }
      ],
      "name": "getDomainHash",
      "outputs": [
        {
          "internalType": "bytes32",
          "name": "",
          "type": "bytes32"
        }
      ],
      "payable": false,
      "stateMutability": "pure",
      "type": "function"
    },
    {
      "constant": true,
      "inputs": [
        {
          "internalType": "bytes",
          "name": "domain",
          "type": "bytes"
        },
        {
          "internalType": "bytes12",
          "name": "topLevel",
          "type": "bytes12"
        }
      ],
      "name": "getReceiptKey",
      "outputs": [
        {
          "internalType": "bytes32",
          "name": "",
          "type": "bytes32"
        }
      ],
      "payable": false,
      "stateMutability": "view",
      "type": "function"
    },
    {
      "constant": false,
      "inputs": [],
      "name": "withdraw",
      "outputs": [],
      "payable": false,
      "stateMutability": "nonpayable",
      "type": "function"
    }
  ],
  "bytecode": "0x608060405260008060146101000a81548160ff02191690831515021790555034801561002a57600080fd5b50336000806101000a81548173ffffffffffffffffffffffffffffffffffffffff021916908373ffffffffffffffffffffffffffffffffffffffff1602179055506127ed8061007a6000396000f3fe6080604052600436106101b75760003560e01c806373ff42a2116100ec578063b4d9e77b1161008a578063d8d5773311610064578063d8d5773314610d43578063f2fde38b14610db2578063f30b70e314610e03578063fcecbb6114610f0c576101b7565b8063b4d9e77b14610bd9578063b7a1ff8f14610cb5578063d678ddf514610d12576101b7565b80638456cb59116100c65780638456cb5914610ad05780638da5cb5b14610ae75780638f32d59b14610b3e578063a79eebbc14610b6d576101b7565b806373ff42a21461087957806378129e19146108a45780637fa594d3146109ab576101b7565b80634e03255a11610159578063666916f811610133578063666916f8146106585780636ac98cdf146106895780636b4dd15814610786578063715018a614610862576101b7565b80634e03255a146104fb5780634e6fcc14146105f85780635c975abb14610629576101b7565b80631e932159116101955780631e93215914610281578063316d2d781461037b5780633ccfd60b146104cd5780633f4ba83a146104e4576101b7565b806304f9c16d146101bc578063080f81ba1461022b578063148d941714610256575b600080fd5b3480156101c857600080fd5b50610215600480360360408110156101df57600080fd5b81019080803573ffffffffffffffffffffffffffffffffffffffff16906020019092919080359060200190929190505050610f69565b6040518082815260200191505060405180910390f35b34801561023757600080fd5b50610240610f97565b6040518082815260200191505060405180910390f35b34801561026257600080fd5b5061026b610fa3565b6040518082815260200191505060405180910390f35b6103796004803603606081101561029757600080fd5b81019080803590602001906401000000008111156102b457600080fd5b8201836020820111156102c657600080fd5b803590602001918460018302840111640100000000831117156102e857600080fd5b91908080601f016020809104026020016040519081016040528093929190818152602001838380828437600081840152601f19601f820116905080830192505050505050509192919290803573ffffffffffffffffffffffffffffffffffffffff19169060200190929190803570ffffffffffffffffffffffffffffffffff19169060200190929190505050610faf565b005b34801561038757600080fd5b506103b46004803603602081101561039e57600080fd5b81019080803590602001909291905050506115ac565b60405180806020018673ffffffffffffffffffffffffffffffffffffffff191673ffffffffffffffffffffffffffffffffffffffff191681526020018573ffffffffffffffffffffffffffffffffffffffff1673ffffffffffffffffffffffffffffffffffffffff1681526020018470ffffffffffffffffffffffffffffffffff191670ffffffffffffffffffffffffffffffffff19168152602001838152602001828103825287818151815260200191508051906020019080838360005b8381101561048e578082015181840152602081019050610473565b50505050905090810190601f1680156104bb5780820380516001836020036101000a031916815260200191505b50965050505050505060405180910390f35b3480156104d957600080fd5b506104e26116b4565b005b3480156104f057600080fd5b506104f961170e565b005b34801561050757600080fd5b506105e26004803603604081101561051e57600080fd5b810190808035906020019064010000000081111561053b57600080fd5b82018360208201111561054d57600080fd5b8035906020019184600183028401116401000000008311171561056f57600080fd5b91908080601f016020809104026020016040519081016040528093929190818152602001838380828437600081840152601f19601f820116905080830192505050505050509192919290803573ffffffffffffffffffffffffffffffffffffffff19169060200190929190505050611780565b6040518082815260200191505060405180910390f35b34801561060457600080fd5b5061060d611871565b604051808260ff1660ff16815260200191505060405180910390f35b34801561063557600080fd5b5061063e611876565b604051808215151515815260200191505060405180910390f35b34801561066457600080fd5b5061066d611889565b604051808260ff1660ff16815260200191505060405180910390f35b34801561069557600080fd5b50610770600480360360408110156106ac57600080fd5b81019080803590602001906401000000008111156106c957600080fd5b8201836020820111156106db57600080fd5b803590602001918460018302840111640100000000831117156106fd57600080fd5b91908080601f016020809104026020016040519081016040528093929190818152602001838380828437600081840152601f19601f820116905080830192505050505050509192919290803573ffffffffffffffffffffffffffffffffffffffff1916906020019092919050505061188e565b6040518082815260200191505060405180910390f35b34801561079257600080fd5b5061084c600480360360208110156107a957600080fd5b81019080803590602001906401000000008111156107c657600080fd5b8201836020820111156107d857600080fd5b803590602001918460018302840111640100000000831117156107fa57600080fd5b91908080601f016020809104026020016040519081016040528093929190818152602001838380828437600081840152601f19601f820116905080830192505050505050509192919290505050611940565b6040518082815260200191505060405180910390f35b34801561086e57600080fd5b50610877611972565b005b34801561088557600080fd5b5061088e611a2a565b6040518082815260200191505060405180910390f35b3480156108b057600080fd5b506109a9600480360360608110156108c757600080fd5b81019080803590602001906401000000008111156108e457600080fd5b8201836020820111156108f657600080fd5b8035906020019184600183028401116401000000008311171561091857600080fd5b91908080601f016020809104026020016040519081016040528093929190818152602001838380828437600081840152601f19601f820116905080830192505050505050509192919290803573ffffffffffffffffffffffffffffffffffffffff19169060200190929190803570ffffffffffffffffffffffffffffffffff19169060200190929190505050611a32565b005b3480156109b757600080fd5b50610a92600480360360408110156109ce57600080fd5b81019080803590602001906401000000008111156109eb57600080fd5b8201836020820111156109fd57600080fd5b80359060200191846001830284011164010000000083111715610a1f57600080fd5b91908080601f016020809104026020016040519081016040528093929190818152602001838380828437600081840152601f19601f820116905080830192505050505050509192919290803573ffffffffffffffffffffffffffffffffffffffff19169060200190929190505050611c53565b604051808270ffffffffffffffffffffffffffffffffff191670ffffffffffffffffffffffffffffffffff1916815260200191505060405180910390f35b348015610adc57600080fd5b50610ae5611c8f565b005b348015610af357600080fd5b50610afc611d03565b604051808273ffffffffffffffffffffffffffffffffffffffff1673ffffffffffffffffffffffffffffffffffffffff16815260200191505060405180910390f35b348015610b4a57600080fd5b50610b53611d2c565b604051808215151515815260200191505060405180910390f35b348015610b7957600080fd5b50610b82611d83565b6040518080602001828103825283818151815260200191508051906020019060200280838360005b83811015610bc5578082015181840152602081019050610baa565b505050509050019250505060405180910390f35b610cb360048036036040811015610bef57600080fd5b8101908080359060200190640100000000811115610c0c57600080fd5b820183602082011115610c1e57600080fd5b80359060200191846001830284011164010000000083111715610c4057600080fd5b91908080601f016020809104026020016040519081016040528093929190818152602001838380828437600081840152601f19601f820116905080830192505050505050509192919290803573ffffffffffffffffffffffffffffffffffffffff19169060200190929190505050611e18565b005b348015610cc157600080fd5b50610cee60048036036020811015610cd857600080fd5b810190808035906020019092919050505061222c565b60405180848152602001838152602001828152602001935050505060405180910390f35b348015610d1e57600080fd5b50610d27612256565b604051808260ff1660ff16815260200191505060405180910390f35b348015610d4f57600080fd5b50610d5861225b565b60405180827effffffffffffffffffffffffffffffffffffffffffffffffffffffffffffff19167effffffffffffffffffffffffffffffffffffffffffffffffffffffffffffff1916815260200191505060405180910390f35b348015610dbe57600080fd5b50610e0160048036036020811015610dd557600080fd5b81019080803573ffffffffffffffffffffffffffffffffffffffff169060200190929190505050612263565b005b348015610e0f57600080fd5b50610f0a60048036036060811015610e2657600080fd5b8101908080359060200190640100000000811115610e4357600080fd5b820183602082011115610e5557600080fd5b80359060200191846001830284011164010000000083111715610e7757600080fd5b91908080601f016020809104026020016040519081016040528093929190818152602001838380828437600081840152601f19601f820116905080830192505050505050509192919290803573ffffffffffffffffffffffffffffffffffffffff19169060200190929190803573ffffffffffffffffffffffffffffffffffffffff169060200190929190505050612280565b005b348015610f1857600080fd5b50610f4560048036036020811015610f2f57600080fd5b810190808035906020019092919050505061250e565b60405180848152602001838152602001828152602001935050505060405180910390f35b60026020528160005260406000208181548110610f8257fe5b90600052602060002001600091509150505481565b670de0b6b3a764000081565b670de0b6b3a764000081565b82600560ff168151101561102b576040517f08c379a00000000000000000000000000000000000000000000000000000000081526004018080602001828103825260198152602001807f446f6d61696e206e616d6520697320746f6f2073686f72742e0000000000000081525060200191505060405180910390fd5b82600160ff16600c60ff1610156110aa576040517f08c379a000000000000000000000000000000000000000000000000000000000815260040180806020018281038252601e8152602001807f5468652070726f766964656420544c4420697320746f6f2073686f72742e000081525060200191505060405180910390fd5b848460006110b8838361188e565b905042600160008381526020019081526020016000206003015410611145576040517f08c379a000000000000000000000000000000000000000000000000000000000815260040180806020018281038252601d8152602001807f446f6d61696e206e616d65206973206e6f7420617661696c61626c652e00000081525060200191505060405180910390fd5b87600061115182611940565b9050803410156111c9576040517f08c379a00000000000000000000000000000000000000000000000000000000081526004018080602001828103825260148152602001807f496e73756666696369656e7420616d6f756e742e00000000000000000000000081525060200191505060405180910390fd5b60006111d58b8b61188e565b90506111df61265d565b6040518060a001604052808d81526020018c73ffffffffffffffffffffffffffffffffffffffff191681526020013373ffffffffffffffffffffffffffffffffffffffff1681526020018b70ffffffffffffffffffffffffffffffffff191681526020016301e13380420181525090508060016000848152602001908152602001600020600082015181600001908051906020019061127f9291906126cd565b5060208201518160010160006101000a8154816bffffffffffffffffffffffff021916908360a01c0217905550604082015181600101600c6101000a81548173ffffffffffffffffffffffffffffffffffffffff021916908373ffffffffffffffffffffffffffffffffffffffff16021790555060608201518160020160006101000a8154816effffffffffffffffffffffffffffff021916908360881c02179055506080820151816003015590505061133761274d565b6040518060600160405280670de0b6b3a764000081526020014281526020016301e1338042018152509050600061136e8e8e611780565b9050600260003373ffffffffffffffffffffffffffffffffffffffff1673ffffffffffffffffffffffffffffffffffffffff1681526020019081526020016000208190806001815401808255809150509060018203906000526020600020016000909192909190915055508160036000838152602001908152602001600020600082015181600001556020820151816001015560408201518160020155905050427f690691adf5dcf1256b88c5de131a8bbbf6cfa0dc88d43b4b8d52e326f0021b868f670de0b6b3a76400006301e1338042016040518080602001848152602001838152602001828103825285818151815260200191508051906020019080838360005b8381101561148d578082015181840152602081019050611472565b50505050905090810190601f1680156114ba5780820380516001836020036101000a031916815260200191505b5094505050505060405180910390a2427f866386c63f5535a3e914902c8867674abc47d0cf171c07e538ec40525fe8033b8f8f60405180806020018373ffffffffffffffffffffffffffffffffffffffff191673ffffffffffffffffffffffffffffffffffffffff19168152602001828103825284818151815260200191508051906020019080838360005b83811015611561578082015181840152602081019050611546565b50505050905090810190601f16801561158e5780820380516001836020036101000a031916815260200191505b50935050505060405180910390a25050505050505050505050505050565b6001602052806000526040600020600091509050806000018054600181600116156101000203166002900480601f0160208091040260200160405190810160405280929190818152602001828054600181600116156101000203166002900480156116585780601f1061162d57610100808354040283529160200191611658565b820191906000526020600020905b81548152906001019060200180831161163b57829003601f168201915b5050505050908060010160009054906101000a900460a01b9080600101600c9054906101000a900473ffffffffffffffffffffffffffffffffffffffff16908060020160009054906101000a900460881b908060030154905085565b6116bc611d2c565b6116c557600080fd5b3373ffffffffffffffffffffffffffffffffffffffff166108fc479081150290604051600060405180830381858888f1935050505015801561170b573d6000803e3d6000fd5b50565b611716611d2c565b61171f57600080fd5b600060149054906101000a900460ff1661173857600080fd5b60008060146101000a81548160ff0219169083151502179055507f7805862f689e2f13df9f062ff482ad3ad112aca9e0847911ed832e158c525b3360405160405180910390a1565b6000828233426040516020018085805190602001908083835b602083106117bc5780518252602082019150602081019050602083039250611799565b6001836020036101000a0380198251168184511680821785525050505050509050018473ffffffffffffffffffffffffffffffffffffffff191673ffffffffffffffffffffffffffffffffffffffff19168152600c018373ffffffffffffffffffffffffffffffffffffffff1673ffffffffffffffffffffffffffffffffffffffff1660601b815260140182815260200194505050505060405160208183030381529060405280519060200120905092915050565b600881565b600060149054906101000a900460ff1681565b600581565b600082826040516020018083805190602001908083835b602083106118c857805182526020820191506020810190506020830392506118a5565b6001836020036101000a0380198251168184511680821785525050505050509050018273ffffffffffffffffffffffffffffffffffffffff191673ffffffffffffffffffffffffffffffffffffffff19168152600c019250505060405160208183030381529060405280519060200120905092915050565b6000600860ff168251101561196157670de0b6b3a76400008001905061196d565b670de0b6b3a764000090505b919050565b61197a611d2c565b61198357600080fd5b6000809054906101000a900473ffffffffffffffffffffffffffffffffffffffff1673ffffffffffffffffffffffffffffffffffffffff167ff8df31144d9c2f0f6b59d69b8b98abd5459d07f2742c4df920b25aae33c6482060405160405180910390a260008060006101000a81548173ffffffffffffffffffffffffffffffffffffffff021916908373ffffffffffffffffffffffffffffffffffffffff160217905550565b6301e1338081565b82826000611a40838361188e565b90503373ffffffffffffffffffffffffffffffffffffffff1660016000838152602001908152602001600020600101600c9054906101000a900473ffffffffffffffffffffffffffffffffffffffff1673ffffffffffffffffffffffffffffffffffffffff1614611afc576040517f08c379a00000000000000000000000000000000000000000000000000000000081526004018080602001828103825260258152602001806127946025913960400191505060405180910390fd5b6000611b08878761188e565b9050846001600083815260200190815260200160002060020160006101000a8154816effffffffffffffffffffffffffffff021916908360881c0217905550427f26bdc0bb2172e6ed279fb9f78c96d130ce52f594c8cfedcc0aea541da98c598288888860405180806020018473ffffffffffffffffffffffffffffffffffffffff191673ffffffffffffffffffffffffffffffffffffffff191681526020018370ffffffffffffffffffffffffffffffffff191670ffffffffffffffffffffffffffffffffff19168152602001828103825285818151815260200191508051906020019080838360005b83811015611c0e578082015181840152602081019050611bf3565b50505050905090810190601f168015611c3b5780820380516001836020036101000a031916815260200191505b5094505050505060405180910390a250505050505050565b600080611c60848461188e565b90506001600082815260200190815260200160002060020160009054906101000a900460881b91505092915050565b611c97611d2c565b611ca057600080fd5b600060149054906101000a900460ff1615611cba57600080fd5b6001600060146101000a81548160ff0219169083151502179055507f6985a02210a168e66602d3235cb6db0e70f92b3ba4d376a33c0f3d9434bff62560405160405180910390a1565b60008060009054906101000a900473ffffffffffffffffffffffffffffffffffffffff16905090565b60008060009054906101000a900473ffffffffffffffffffffffffffffffffffffffff1673ffffffffffffffffffffffffffffffffffffffff163373ffffffffffffffffffffffffffffffffffffffff1614905090565b6060600260003373ffffffffffffffffffffffffffffffffffffffff1673ffffffffffffffffffffffffffffffffffffffff168152602001908152602001600020805480602002602001604051908101604052809291908181526020018280548015611e0e57602002820191906000526020600020905b815481526020019060010190808311611dfa575b5050505050905090565b81816000611e26838361188e565b90503373ffffffffffffffffffffffffffffffffffffffff1660016000838152602001908152602001600020600101600c9054906101000a900473ffffffffffffffffffffffffffffffffffffffff1673ffffffffffffffffffffffffffffffffffffffff1614611ee2576040517f08c379a00000000000000000000000000000000000000000000000000000000081526004018080602001828103825260258152602001806127946025913960400191505060405180910390fd5b846000611eee82611940565b905080341015611f66576040517f08c379a00000000000000000000000000000000000000000000000000000000081526004018080602001828103825260148152602001807f496e73756666696369656e7420616d6f756e742e00000000000000000000000081525060200191505060405180910390fd5b6000611f72888861188e565b90506301e133806001600083815260200190815260200160002060030160008282540192505081905550611fa461274d565b6040518060600160405280670de0b6b3a764000081526020014281526020016301e13380420181525090506000611fdb8a8a611780565b9050600260003373ffffffffffffffffffffffffffffffffffffffff1673ffffffffffffffffffffffffffffffffffffffff16815260200190815260200160002081908060018154018082558091505090600182039060005260206000200160009091929091909150555081600360008381526020019081526020016000206000820151816000015560208201518160010155604082015181600201559050503373ffffffffffffffffffffffffffffffffffffffff16427f4164715c0e5c59941e6e13d4801ec49371896676546912145e8325a848d7f4f58c8c60405180806020018373ffffffffffffffffffffffffffffffffffffffff191673ffffffffffffffffffffffffffffffffffffffff19168152602001828103825284818151815260200191508051906020019080838360005b8381101561212a57808201518184015260208101905061210f565b50505050905090810190601f1680156121575780820380516001836020036101000a031916815260200191505b50935050505060405180910390a3427f690691adf5dcf1256b88c5de131a8bbbf6cfa0dc88d43b4b8d52e326f0021b868b670de0b6b3a76400006301e1338042016040518080602001848152602001838152602001828103825285818151815260200191508051906020019080838360005b838110156121e45780820151818401526020810190506121c9565b50505050905090810190601f1680156122115780820380516001836020036101000a031916815260200191505b5094505050505060405180910390a250505050505050505050565b60036020528060005260406000206000915090508060000154908060010154908060020154905083565b600181565b600060f81b81565b61226b611d2c565b61227457600080fd5b61227d81612565565b50565b8282600061228e838361188e565b90503373ffffffffffffffffffffffffffffffffffffffff1660016000838152602001908152602001600020600101600c9054906101000a900473ffffffffffffffffffffffffffffffffffffffff1673ffffffffffffffffffffffffffffffffffffffff161461234a576040517f08c379a00000000000000000000000000000000000000000000000000000000081526004018080602001828103825260258152602001806127946025913960400191505060405180910390fd5b600073ffffffffffffffffffffffffffffffffffffffff168473ffffffffffffffffffffffffffffffffffffffff16141561238457600080fd5b6000612390878761188e565b90508460016000838152602001908152602001600020600101600c6101000a81548173ffffffffffffffffffffffffffffffffffffffff021916908373ffffffffffffffffffffffffffffffffffffffff1602179055503373ffffffffffffffffffffffffffffffffffffffff16427f4ae77a0d854d432937d6a090209418c3673044142d83c16c9745731194b8527089898960405180806020018473ffffffffffffffffffffffffffffffffffffffff191673ffffffffffffffffffffffffffffffffffffffff191681526020018373ffffffffffffffffffffffffffffffffffffffff1673ffffffffffffffffffffffffffffffffffffffff168152602001828103825285818151815260200191508051906020019080838360005b838110156124c95780820151818401526020810190506124ae565b50505050905090810190601f1680156124f65780820380516001836020036101000a031916815260200191505b5094505050505060405180910390a350505050505050565b60008060006003600085815260200190815260200160002060000154600360008681526020019081526020016000206001015460036000878152602001908152602001600020600201549250925092509193909250565b600073ffffffffffffffffffffffffffffffffffffffff168173ffffffffffffffffffffffffffffffffffffffff16141561259f57600080fd5b8073ffffffffffffffffffffffffffffffffffffffff166000809054906101000a900473ffffffffffffffffffffffffffffffffffffffff1673ffffffffffffffffffffffffffffffffffffffff167f8be0079c531659141344cd1fd0a4f28419497f9722a3daafe3b4186f6b6457e060405160405180910390a3806000806101000a81548173ffffffffffffffffffffffffffffffffffffffff021916908373ffffffffffffffffffffffffffffffffffffffff16021790555050565b6040518060a0016040528060608152602001600073ffffffffffffffffffffffffffffffffffffffff19168152602001600073ffffffffffffffffffffffffffffffffffffffff168152602001600070ffffffffffffffffffffffffffffffffff19168152602001600081525090565b828054600181600116156101000203166002900490600052602060002090601f016020900481019282601f1061270e57805160ff191683800117855561273c565b8280016001018555821561273c579182015b8281111561273b578251825591602001919060010190612720565b5b509050612749919061276e565b5090565b60405180606001604052806000815260200160008152602001600081525090565b61279091905b8082111561278c576000816000905550600101612774565b5090565b9056fe596f7520617265206e6f7420746865206f776e6572206f66207468697320646f6d61696e2ea265627a7a723158206ebc1c3bbfbac4ef38a50639b2ddb8547916637c54581a188b84e2cd95f3ead664736f6c63430005100032",
  "source": "pragma solidity >=0.4.22 <0.8.0;\r\n\r\nimport './common/Ownable.sol';\r\nimport './common/Pausable.sol';\r\nimport './libs/SafeMath.sol';\r\n\r\ncontract DDNSService is Pausable {\r\n  /** USINGS */\r\n  using SafeMath for uint256;\r\n\r\n  /** STRUCTS */\r\n  struct DomainDetails {\r\n    bytes name;\r\n    bytes12 topLevel;\r\n    address owner;\r\n    bytes15 ip;\r\n    uint256 expires;\r\n  }\r\n\r\n  struct Receipt {\r\n    uint256 amountPaidWei;\r\n    uint256 timestamp;\r\n    uint256 expires;\r\n  }\r\n\r\n  /** CONSTANTS */\r\n  uint256 public constant DOMAIN_NAME_COST = 1 ether;\r\n  uint256 public constant DOMAIN_NAME_COST_SHORT_ADDITION = 1 ether;\r\n  uint256 public constant DOMAIN_EXPIRATION_DATE = 365 days;\r\n  uint8 public constant DOMAIN_NAME_MIN_LENGTH = 5;\r\n  uint8 public constant DOMAIN_NAME_EXPENSIVE_LENGTH = 8;\r\n  uint8 public constant TOP_LEVEL_DOMAIN_MIN_LENGTH = 1;\r\n  bytes1 public constant BYTES_DEFAULT_VALUE = bytes1(0x00);\r\n\r\n  /** STATE VARIABLES */\r\n  mapping(bytes32 => DomainDetails) public domainNames;\r\n  mapping(address => bytes32[]) public paymentReceipts;\r\n  mapping(bytes32 => Receipt) public receiptDetails;\r\n\r\n  /**\r\n   * MODIFIERS\r\n   */\r\n  modifier isAvailable(bytes memory domain, bytes12 topLevel) {\r\n    bytes32 domainHash = getDomainHash(domain, topLevel);\r\n    require(\r\n      domainNames[domainHash].expires < block.timestamp,\r\n      'Domain name is not available.'\r\n    );\r\n    _;\r\n  }\r\n\r\n  modifier collectDomainNamePayment(bytes memory domain) {\r\n    uint256 domainPrice = getPrice(domain);\r\n    require(msg.value >= domainPrice, 'Insufficient amount.');\r\n    _;\r\n  }\r\n\r\n  modifier isDomainOwner(bytes memory domain, bytes12 topLevel) {\r\n    bytes32 domainHash = getDomainHash(domain, topLevel);\r\n    require(\r\n      domainNames[domainHash].owner == msg.sender,\r\n      'You are not the owner of this domain.'\r\n    );\r\n    _;\r\n  }\r\n\r\n  modifier isDomainNameLengthAllowed(bytes memory domain) {\r\n    require(\r\n      domain.length >= DOMAIN_NAME_MIN_LENGTH,\r\n      'Domain name is too short.'\r\n    );\r\n    _;\r\n  }\r\n\r\n  modifier isTopLevelLengthAllowed(bytes12 topLevel) {\r\n    require(\r\n      topLevel.length >= TOP_LEVEL_DOMAIN_MIN_LENGTH,\r\n      'The provided TLD is too short.'\r\n    );\r\n    _;\r\n  }\r\n\r\n  /**\r\n   *  EVENTS\r\n   */\r\n  event LogDomainNameRegistered(\r\n    uint256 indexed timestamp,\r\n    bytes domainName,\r\n    bytes12 topLevel\r\n  );\r\n\r\n  event LogDomainNameRenewed(\r\n    uint256 indexed timestamp,\r\n    bytes domainName,\r\n    bytes12 topLevel,\r\n    address indexed owner\r\n  );\r\n\r\n  event LogDomainNameEdited(\r\n    uint256 indexed timestamp,\r\n    bytes domainName,\r\n    bytes12 topLevel,\r\n    bytes15 newIp\r\n  );\r\n\r\n  event LogDomainNameTransferred(\r\n    uint256 indexed timestamp,\r\n    bytes domainName,\r\n    bytes12 topLevel,\r\n    address indexed owner,\r\n    address newOwner\r\n  );\r\n\r\n  event LogPurchaseChangeReturned(\r\n    uint256 indexed timestamp,\r\n    address indexed _owner,\r\n    uint256 amount\r\n  );\r\n\r\n  event LogReceipt(\r\n    uint256 indexed timestamp,\r\n    bytes domainName,\r\n    uint256 amountInWei,\r\n    uint256 expires\r\n  );\r\n\r\n  /**\r\n   * @dev - Constructor of the contract\r\n   */\r\n  constructor() public {}\r\n\r\n  /*\r\n   * @dev - function to register domain name\r\n   * @param domain - domain name to be registered\r\n   * @param topLevel - domain top level (TLD)\r\n   * @param ip - the ip of the host\r\n   */\r\n  function register(\r\n    bytes memory domain,\r\n    bytes12 topLevel,\r\n    bytes15 ip\r\n  )\r\n    public\r\n    payable\r\n    isDomainNameLengthAllowed(domain)\r\n    isTopLevelLengthAllowed(topLevel)\r\n    isAvailable(domain, topLevel)\r\n    collectDomainNamePayment(domain)\r\n  {\r\n    // calculate the domain hash\r\n    bytes32 domainHash = getDomainHash(domain, topLevel);\r\n\r\n    // create a new domain entry with the provided fn parameters\r\n    DomainDetails memory newDomain = DomainDetails({\r\n      name: domain,\r\n      topLevel: topLevel,\r\n      owner: msg.sender,\r\n      ip: ip,\r\n      expires: block.timestamp + DOMAIN_EXPIRATION_DATE\r\n    });\r\n\r\n    // save the domain to the storage\r\n    domainNames[domainHash] = newDomain;\r\n\r\n    // create an receipt entry for this domain purchase\r\n    Receipt memory newReceipt = Receipt({\r\n      amountPaidWei: DOMAIN_NAME_COST,\r\n      timestamp: block.timestamp,\r\n      expires: block.timestamp + DOMAIN_EXPIRATION_DATE\r\n    });\r\n\r\n    // calculate the receipt hash/key\r\n    bytes32 receiptKey = getReceiptKey(domain, topLevel);\r\n\r\n    // save the receipt key for this `msg.sender` in storage\r\n    paymentReceipts[msg.sender].push(receiptKey);\r\n\r\n    // save the receipt entry/details in storage\r\n    receiptDetails[receiptKey] = newReceipt;\r\n\r\n    // log receipt issuance\r\n    emit LogReceipt(\r\n      block.timestamp,\r\n      domain,\r\n      DOMAIN_NAME_COST,\r\n      block.timestamp + DOMAIN_EXPIRATION_DATE\r\n    );\r\n\r\n    // log domain name registered\r\n    emit LogDomainNameRegistered(block.timestamp, domain, topLevel);\r\n  }\r\n\r\n  /*\r\n   * @dev - function to extend domain expiration date\r\n   * @param domain - domain name to be registered\r\n   * @param topLevel - top level\r\n   */\r\n  function renewDomainName(bytes memory domain, bytes12 topLevel)\r\n    public\r\n    payable\r\n    isDomainOwner(domain, topLevel)\r\n    collectDomainNamePayment(domain)\r\n  {\r\n    // calculate the domain hash\r\n    bytes32 domainHash = getDomainHash(domain, topLevel);\r\n\r\n    // add 365 days (1 year) to the domain expiration date\r\n    domainNames[domainHash].expires += 365 days;\r\n\r\n    // create a receipt entity\r\n    Receipt memory newReceipt = Receipt({\r\n      amountPaidWei: DOMAIN_NAME_COST,\r\n      timestamp: block.timestamp,\r\n      expires: block.timestamp + DOMAIN_EXPIRATION_DATE\r\n    });\r\n\r\n    // calculate the receipt key for this domain\r\n    bytes32 receiptKey = getReceiptKey(domain, topLevel);\r\n\r\n    // save the receipt id for this msg.sender\r\n    paymentReceipts[msg.sender].push(receiptKey);\r\n\r\n    // store the receipt details in storage\r\n    receiptDetails[receiptKey] = newReceipt;\r\n\r\n    // log domain name Renewed\r\n    emit LogDomainNameRenewed(block.timestamp, domain, topLevel, msg.sender);\r\n\r\n    // log receipt issuance\r\n    emit LogReceipt(\r\n      block.timestamp,\r\n      domain,\r\n      DOMAIN_NAME_COST,\r\n      block.timestamp + DOMAIN_EXPIRATION_DATE\r\n    );\r\n  }\r\n\r\n  /*\r\n   * @dev - function to edit domain name\r\n   * @param domain - the domain name to be editted\r\n   * @param topLevel - tld of the domain\r\n   * @param newIp - the new ip for the domain\r\n   */\r\n  function edit(\r\n    bytes memory domain,\r\n    bytes12 topLevel,\r\n    bytes15 newIp\r\n  ) public isDomainOwner(domain, topLevel) {\r\n    // calculate the domain hash - unique id\r\n    bytes32 domainHash = getDomainHash(domain, topLevel);\r\n\r\n    // update the new ip\r\n    domainNames[domainHash].ip = newIp;\r\n\r\n    // log change\r\n    emit LogDomainNameEdited(block.timestamp, domain, topLevel, newIp);\r\n  }\r\n\r\n  /*\r\n   * @dev - Transfer domain ownership\r\n   * @param domain - name of the domain\r\n   * @param topLevel - tld of the domain\r\n   * @param newOwner - address of the new owner\r\n   */\r\n  function transferDomain(\r\n    bytes memory domain,\r\n    bytes12 topLevel,\r\n    address newOwner\r\n  ) public isDomainOwner(domain, topLevel) {\r\n    // prevent assigning domain ownership to the 0x0 address\r\n    require(newOwner != address(0));\r\n\r\n    // calculate the hash of the current domain\r\n    bytes32 domainHash = getDomainHash(domain, topLevel);\r\n\r\n    // assign the new owner of the domain\r\n    domainNames[domainHash].owner = newOwner;\r\n\r\n    // log the transfer of ownership\r\n    emit LogDomainNameTransferred(\r\n      block.timestamp,\r\n      domain,\r\n      topLevel,\r\n      msg.sender,\r\n      newOwner\r\n    );\r\n  }\r\n\r\n  /*\r\n   * @dev - Get ip of domain\r\n   * @param domain\r\n   * @param topLevel\r\n   */\r\n  function getIP(bytes memory domain, bytes12 topLevel)\r\n    public\r\n    view\r\n    returns (bytes15)\r\n  {\r\n    // calculate the hash of the domain\r\n    bytes32 domainHash = getDomainHash(domain, topLevel);\r\n\r\n    // return the ip property of the domain from storage\r\n    return domainNames[domainHash].ip;\r\n  }\r\n\r\n  /*\r\n   * @dev - Get price of domain\r\n   * @param domain\r\n   */\r\n  function getPrice(bytes memory domain) public pure returns (uint256) {\r\n    // check if the domain name fits in the expensive or cheap categroy\r\n    if (domain.length < DOMAIN_NAME_EXPENSIVE_LENGTH) {\r\n      // if the domain is too short - its more expensive\r\n      return DOMAIN_NAME_COST + DOMAIN_NAME_COST_SHORT_ADDITION;\r\n    }\r\n\r\n    // otherwise return the regular price\r\n    return DOMAIN_NAME_COST;\r\n  }\r\n\r\n  /**\r\n   * @dev - Get receipt list for the msg.sender\r\n   */\r\n  function getReceiptList() public view returns (bytes32[] memory) {\r\n    return paymentReceipts[msg.sender];\r\n  }\r\n\r\n  /*\r\n   * @dev - Get single receipt\r\n   * @param receiptKey\r\n   */\r\n  function getReceipt(bytes32 receiptKey)\r\n    public\r\n    view\r\n    returns (\r\n      uint256,\r\n      uint256,\r\n      uint256\r\n    )\r\n  {\r\n    return (\r\n      receiptDetails[receiptKey].amountPaidWei,\r\n      receiptDetails[receiptKey].timestamp,\r\n      receiptDetails[receiptKey].expires\r\n    );\r\n  }\r\n\r\n  /*\r\n   * @dev - Get (domain name + top level) hash used for unique identifier\r\n   * @param domain\r\n   * @param topLevel\r\n   * @return domainHash\r\n   */\r\n  function getDomainHash(bytes memory domain, bytes12 topLevel)\r\n    public\r\n    pure\r\n    returns (bytes32)\r\n  {\r\n    // @dev - tightly pack parameters in struct for keccak256\r\n    return keccak256(abi.encodePacked(domain, topLevel));\r\n  }\r\n\r\n  /*\r\n   * @dev - Get recepit key hash - unique identifier\r\n   * @param domain\r\n   * @param topLevel\r\n   * @return receiptKey\r\n   */\r\n  function getReceiptKey(bytes memory domain, bytes12 topLevel)\r\n    public\r\n    view\r\n    returns (bytes32)\r\n  {\r\n    // @dev - tightly pack parameters in struct for keccak256\r\n    return\r\n      keccak256(\r\n        abi.encodePacked(domain, topLevel, msg.sender, block.timestamp)\r\n      );\r\n  }\r\n\r\n  /**\r\n   * @dev - Withdraw function\r\n   */\r\n  function withdraw() public onlyOwner {\r\n    msg.sender.transfer(address(this).balance);\r\n  }\r\n}\r\n",
  "sourcePath": "D:/Arnold/School/Academia/CZ4153 Blockchain/Ethereum/dApp/contracts/DDNSService.sol",
  "compiler": {
    "name": "solc",
    "version": "0.5.16+commit.9c3226ce.Emscripten.clang"
  },
  "schemaVersion": "3.3.0",
  "updatedAt": "2020-10-21T10:25:18.444Z",
  "networkType": "ethereum",
  "devdoc": {
    "methods": {
      "constructor": {
        "details": "- Constructor of the contract"
      },
      "getReceiptList()": {
        "details": "- Get receipt list for the msg.sender"
      },
      "isOwner()": {
        "return": "true if `msg.sender` is the owner of the contract."
      },
      "owner()": {
        "return": "the address of the owner."
      },
      "pause()": {
        "details": "called by the owner to pause, triggers stopped state"
      },
      "renounceOwnership()": {
        "details": "Allows the current owner to relinquish control of the contract."
      },
      "transferOwnership(address)": {
        "details": "Allows the current owner to transfer control of the contract to a newOwner.",
        "params": {
          "newOwner": "The address to transfer ownership to."
        }
      },
      "unpause()": {
        "details": "called by the owner to unpause, returns to normal state"
      },
      "withdraw()": {
        "details": "- Withdraw function"
      }
    }
  },
  "userdoc": {
    "methods": {
      "renounceOwnership()": {
        "notice": "Renouncing to ownership will leave the contract without an owner. It will not be possible to call the functions with the `onlyOwner` modifier anymore."
      }
    }
  }
}